{
  "address": "0xBfb8F258877fbBC68117919E59B83051CA29D883",
  "abi": [
    {
      "inputs": [
        {
          "internalType": "address",
          "name": "token_",
          "type": "address"
        },
        {
          "internalType": "bytes32",
          "name": "merkleRoot_",
          "type": "bytes32"
        }
      ],
      "stateMutability": "nonpayable",
      "type": "constructor"
    },
    {
      "anonymous": false,
      "inputs": [
        {
          "indexed": false,
          "internalType": "uint256",
          "name": "index",
          "type": "uint256"
        },
        {
          "indexed": false,
          "internalType": "address",
          "name": "account",
          "type": "address"
        },
        {
          "indexed": false,
          "internalType": "uint256",
          "name": "amount",
          "type": "uint256"
        }
      ],
      "name": "Claimed",
      "type": "event"
    },
    {
      "inputs": [
        {
          "internalType": "uint256",
          "name": "index",
          "type": "uint256"
        },
        {
          "internalType": "address",
          "name": "account",
          "type": "address"
        },
        {
          "internalType": "uint256",
          "name": "amount",
          "type": "uint256"
        },
        {
          "internalType": "bytes32[]",
          "name": "merkleProof",
          "type": "bytes32[]"
        }
      ],
      "name": "claim",
      "outputs": [],
      "stateMutability": "nonpayable",
      "type": "function"
    },
    {
      "inputs": [],
      "name": "claimOnlyOnce",
      "outputs": [
        {
          "internalType": "bool",
          "name": "",
          "type": "bool"
        }
      ],
      "stateMutability": "view",
      "type": "function"
    },
    {
      "inputs": [
        {
          "internalType": "uint256",
          "name": "index",
          "type": "uint256"
        }
      ],
      "name": "isClaimed",
      "outputs": [
        {
          "internalType": "bool",
          "name": "",
          "type": "bool"
        }
      ],
      "stateMutability": "view",
      "type": "function"
    },
    {
      "inputs": [],
      "name": "merkleRoot",
      "outputs": [
        {
          "internalType": "bytes32",
          "name": "",
          "type": "bytes32"
        }
      ],
      "stateMutability": "view",
      "type": "function"
    },
    {
      "inputs": [
        {
          "internalType": "bool",
          "name": "_claimOnlyOnce",
          "type": "bool"
        }
      ],
      "name": "setClaimOnlyOnce",
      "outputs": [],
      "stateMutability": "nonpayable",
      "type": "function"
    },
    {
      "inputs": [],
      "name": "token",
      "outputs": [
        {
          "internalType": "address",
          "name": "",
          "type": "address"
        }
      ],
      "stateMutability": "view",
      "type": "function"
    }
  ],
  "transactionHash": "0x6a7f40e664801972a25bae7c53ff16fe996ae1eb47c76bfccb118b2cec729eb7",
  "args": [
    "0x4CF566d201eF144e09d2f8ABE1cC0E451D79De53",
    "0x1a321da3246aa04a017608e143d5322ea48f94024a748517e37eace55cff7443"
  ],
  "solcInputHash": "d39e690241331fd2f208d0106f160807",
  "bytecode": "0x60c060405234801561001057600080fd5b506040516106933803806106938339818101604052604081101561003357600080fd5b508051602090910151606082901b6001600160601b03191660805260a08190526001600160a01b039091169061060d6100866000398061025352806103fb5250806102c45280610478525061060d6000f3fe608060405234801561001057600080fd5b50600436106100625760003560e01c80632e7ba6ef146100675780632eb4a7ab146100f55780638b9be9a61461010f5780639e34070f1461012e578063ca2f498b1461015f578063fc0c546a14610167575b600080fd5b6100f36004803603608081101561007d57600080fd5b8135916001600160a01b0360208201351691604082013591908101906080810160608201356401000000008111156100b457600080fd5b8201836020820111156100c657600080fd5b803590602001918460208302840111640100000000831117156100e857600080fd5b50909250905061018b565b005b6100fd6103f9565b60408051918252519081900360200190f35b6100f36004803603602081101561012557600080fd5b5035151561041d565b61014b6004803603602081101561014457600080fd5b5035610430565b604080519115158252519081900360200190f35b61014b61046d565b61016f610476565b604080516001600160a01b039092168252519081900360200190f35b60005460ff16156101db5761019f85610430565b156101db5760405162461bcd60e51b815260040180806020018281038252602881526020018061056c6028913960400191505060405180910390fd5b6040805160208082018890526bffffffffffffffffffffffff19606088901b168284015260548083018790528351808403909101815260748301808552815191830191909120609492860280850184019095528582529361027e939192879287928392909101908490808284376000920191909152507f0000000000000000000000000000000000000000000000000000000000000000925085915061049a9050565b6102b95760405162461bcd60e51b81526004018080602001828103825260218152602001806105946021913960400191505060405180910390fd5b6102c286610543565b7f00000000000000000000000000000000000000000000000000000000000000006001600160a01b031663a9059cbb86866040518363ffffffff1660e01b815260040180836001600160a01b03166001600160a01b0316815260200182815260200192505050602060405180830381600087803b15801561034257600080fd5b505af1158015610356573d6000803e3d6000fd5b505050506040513d602081101561036c57600080fd5b50516103a95760405162461bcd60e51b81526004018080602001828103825260238152602001806105b56023913960400191505060405180910390fd5b604080518781526001600160a01b038716602082015280820186905290517f4ec90e965519d92681267467f775ada5bd214aa92c0dc93d90a5e880ce9ed0269181900360600190a1505050505050565b7f000000000000000000000000000000000000000000000000000000000000000081565b6000805460ff1916911515919091179055565b6000805460ff1661044357506000610468565b50610100810460009081526001602081905260409091205460ff83169190911b908116145b919050565b60005460ff1681565b7f000000000000000000000000000000000000000000000000000000000000000081565b600081815b85518110156105385760008682815181106104b657fe5b602002602001015190508083116104fd578281604051602001808381526020018281526020019250505060405160208183030381529060405280519060200120925061052f565b808360405160200180838152602001828152602001925050506040516020818303038152906040528051906020012092505b5060010161049f565b509092149392505050565b61010081046000908152600160208190526040909120805460ff9093169190911b909117905556fe4d65726b6c654469737472696275746f723a2044726f7020616c726561647920636c61696d65642e4d65726b6c654469737472696275746f723a20496e76616c69642070726f6f662e4d65726b6c654469737472696275746f723a205472616e73666572206661696c65642ea264697066735822122090b68ddf73378a8d0c30f75a38f03cd9712f9759c1a8ae9d92445d99a54dab6364736f6c634300060b0033",
  "devdoc": {
    "kind": "dev",
    "methods": {},
    "version": 1
  },
  "userdoc": {
    "kind": "user",
    "methods": {},
    "version": 1
  },
  "storageLayout": {
    "storage": [
      {
        "astId": 1302,
        "contract": "contracts/test/ClearableMerkleDistributor.sol:ClearableMerkleDistributor",
        "label": "claimOnlyOnce",
        "offset": 0,
        "slot": "0",
        "type": "t_bool"
      },
      {
        "astId": 1306,
        "contract": "contracts/test/ClearableMerkleDistributor.sol:ClearableMerkleDistributor",
        "label": "claimedBitMap",
        "offset": 0,
        "slot": "1",
        "type": "t_mapping(t_uint256,t_uint256)"
      }
    ],
    "types": {
      "t_bool": {
        "encoding": "inplace",
        "label": "bool",
        "numberOfBytes": "1"
      },
      "t_mapping(t_uint256,t_uint256)": {
        "encoding": "mapping",
        "key": "t_uint256",
        "label": "mapping(uint256 => uint256)",
        "numberOfBytes": "32",
        "value": "t_uint256"
      },
      "t_uint256": {
        "encoding": "inplace",
        "label": "uint256",
        "numberOfBytes": "32"
      }
    }
  }
}